:020000040000FA
:060000000A128A11FC2F18
:100CAC00700C83120313031C081303180817080095
:100CBC00700C83120313031C881203188816080087
:100CCC00700C83120313031C081103180815080079
:100CDC00700C83120313031C881303188817080065
:100CEC00700C83120313031C881103188815080059
:100CFC0083120313080C0139F200F3017208F0009F
:100D0C007308F100892E0800831603138813081347
:100D1C008812881408118811831203138810081183
:100D2C0088118812081388130800AA2E0130F002CB
:100D3C000030031CF103F102C730F200A52EF20BB8
:100D4C00A42EA82EA92EAA2E70087104031DAF2E56
:100D5C00B02E9C2EB12E0800F401F501D52FD52F05
:100D6C000130F4000030F500D52F0A128A118A26C2
:100D7C000A128A110230F4000030F500D52F003031
:100D8C00F000F1000A128A116E260A128A11003044
:100D9C00F000F1000A128A1156260A128A1101304B
:100DAC00F0000030F1000A128A115E260A128A1134
:100DBC000130F0000030F1000A128A1176260A1276
:100DCC008A110030F000F1000A128A1166260A120C
:100DDC008A110A128A117E260A128A117003710472
:100DEC00031DF92EFA2ED52F0330F4000030F50038
:100DFC00D52FD52FB830F6000B30F7000430F400A7
:100E0C000030F500D52FFF30F6070318F70AFF3036
:100E1C00F7070130F0000030F1000A128A119B260E
:100E2C000A128A117708803AFF0080307F02031D76
:100E3C00212F013076020318242F252F2A2F05305D
:100E4C00F4000030F5002A2F0A128A117E260A12AD
:100E5C008A1170037104031D342F352FD52F0330E5
:100E6C00F4000030F500D52FD52F0030F000F10044
:100E7C000A128A116E260A128A110130F000003013
:100E8C00F1000A128A1156260A128A110030F0005B
:100E9C00F1000A128A115E260A128A110030F00043
:100EAC00F1000A128A1176260A128A110130F0001A
:100EBC000030F1000A128A1166260A128A11D0300B
:100ECC00F6000730F7000630F4000030F500D52F9F
:100EDC000130F0000030F1000A128A119B260A1230
:100EEC008A11FF30F6070318F70AFF30F707770867
:100EFC00803AFF0080307F02031D862F013076027E
:100F0C000318892F8A2FD52F0730F4000030F500F5
:100F1C00D52FD52F0130F0000030F1000A128A11C4
:100F2C006E260A128A110030F000F1000A128A11A2
:100F3C0056260A128A110030F000F1000A128A11AA
:100F4C005E260A128A118830F6001330F70008303A
:100F5C00F4000030F500D52F0130F0000030F10026
:100F6C000A128A119B260A128A11FF30F6070318FF
:100F7C00F70AFF30F7077708803AFF0080307F02CE
:100F8C00031DCA2F013076020318CD2FCE2FD52F7B
:100F9C000230F4000030F500D52FD52FD52F750871
:100FAC00003A0319DA2FD52F7408003A0319B62E1C
:100FBC00013A0319BB2E033A0319C52E013A031942
:100FCC00002F073A0319092F013A03193B2F033A53
:100FDC0003196E2F013A0319902F0F3A0319B22FF0
:100FEC00D52FD52FD52F0A128A11002883010A126A
:040FFC008A11B22E76
:04400E00D4E0FFFFFC
:00000001FF
